{
  "_format": "hh-sol-artifact-1",
  "contractName": "MyGovernor",
  "sourceName": "contracts/MyGovernor.sol",
  "abi": [
    {
      "inputs": [
        {
          "internalType": "contract IVotes",
          "name": "_token",
          "type": "address"
        }
      ],
      "stateMutability": "nonpayable",
      "type": "constructor"
    },
    {
      "inputs": [],
      "name": "CheckpointUnorderedInsertion",
      "type": "error"
    },
    {
      "inputs": [],
      "name": "FailedCall",
      "type": "error"
    },
    {
      "inputs": [
        {
          "internalType": "address",
          "name": "voter",
          "type": "address"
        }
      ],
      "name": "GovernorAlreadyCastVote",
      "type": "error"
    },
    {
      "inputs": [
        {
          "internalType": "uint256",
          "name": "proposalId",
          "type": "uint256"
        }
      ],
      "name": "GovernorAlreadyQueuedProposal",
      "type": "error"
    },
    {
      "inputs": [],
      "name": "GovernorDisabledDeposit",
      "type": "error"
    },
    {
      "inputs": [
        {
          "internalType": "address",
          "name": "proposer",
          "type": "address"
        },
        {
          "internalType": "uint256",
          "name": "votes",
          "type": "uint256"
        },
        {
          "internalType": "uint256",
          "name": "threshold",
          "type": "uint256"
        }
      ],
      "name": "GovernorInsufficientProposerVotes",
      "type": "error"
    },
    {
      "inputs": [
        {
          "internalType": "uint256",
          "name": "targets",
          "type": "uint256"
        },
        {
          "internalType": "uint256",
          "name": "calldatas",
          "type": "uint256"
        },
        {
          "internalType": "uint256",
          "name": "values",
          "type": "uint256"
        }
      ],
      "name": "GovernorInvalidProposalLength",
      "type": "error"
    },
    {
      "inputs": [
        {
          "internalType": "uint256",
          "name": "quorumNumerator",
          "type": "uint256"
        },
        {
          "internalType": "uint256",
          "name": "quorumDenominator",
          "type": "uint256"
        }
      ],
      "name": "GovernorInvalidQuorumFraction",
      "type": "error"
    },
    {
      "inputs": [
        {
          "internalType": "address",
          "name": "voter",
          "type": "address"
        }
      ],
      "name": "GovernorInvalidSignature",
      "type": "error"
    },
    {
      "inputs": [],
      "name": "GovernorInvalidVoteParams",
      "type": "error"
    },
    {
      "inputs": [],
      "name": "GovernorInvalidVoteType",
      "type": "error"
    },
    {
      "inputs": [
        {
          "internalType": "uint256",
          "name": "votingPeriod",
          "type": "uint256"
        }
      ],
      "name": "GovernorInvalidVotingPeriod",
      "type": "error"
    },
    {
      "inputs": [
        {
          "internalType": "uint256",
          "name": "proposalId",
          "type": "uint256"
        }
      ],
      "name": "GovernorNonexistentProposal",
      "type": "error"
    },
    {
      "inputs": [
        {
          "internalType": "uint256",
          "name": "proposalId",
          "type": "uint256"
        }
      ],
      "name": "GovernorNotQueuedProposal",
      "type": "error"
    },
    {
      "inputs": [
        {
          "internalType": "address",
          "name": "account",
          "type": "address"
        }
      ],
      "name": "GovernorOnlyExecutor",
      "type": "error"
    },
    {
      "inputs": [],
      "name": "GovernorQueueNotImplemented",
      "type": "error"
    },
    {
      "inputs": [
        {
          "internalType": "address",
          "name": "proposer",
          "type": "address"
        }
      ],
      "name": "GovernorRestrictedProposer",
      "type": "error"
    },
    {
      "inputs": [
        {
          "internalType": "uint256",
          "name": "proposalId",
          "type": "uint256"
        },
        {
          "internalType": "address",
          "name": "account",
          "type": "address"
        }
      ],
      "name": "GovernorUnableToCancel",
      "type": "error"
    },
    {
      "inputs": [
        {
          "internalType": "uint256",
          "name": "proposalId",
          "type": "uint256"
        },
        {
          "internalType": "enum IGovernor.ProposalState",
          "name": "current",
          "type": "uint8"
        },
        {
          "internalType": "bytes32",
          "name": "expectedStates",
          "type": "bytes32"
        }
      ],
      "name": "GovernorUnexpectedProposalState",
      "type": "error"
    },
    {
      "inputs": [
        {
          "internalType": "address",
          "name": "account",
          "type": "address"
        },
        {
          "internalType": "uint256",
          "name": "currentNonce",
          "type": "uint256"
        }
      ],
      "name": "InvalidAccountNonce",
      "type": "error"
    },
    {
      "inputs": [],
      "name": "InvalidShortString",
      "type": "error"
    },
    {
      "inputs": [
        {
          "internalType": "uint8",
          "name": "bits",
          "type": "uint8"
        },
        {
          "internalType": "uint256",
          "name": "value",
          "type": "uint256"
        }
      ],
      "name": "SafeCastOverflowedUintDowncast",
      "type": "error"
    },
    {
      "inputs": [
        {
          "internalType": "string",
          "name": "str",
          "type": "string"
        }
      ],
      "name": "StringTooLong",
      "type": "error"
    },
    {
      "anonymous": false,
      "inputs": [],
      "name": "EIP712DomainChanged",
      "type": "event"
    },
    {
      "anonymous": false,
      "inputs": [
        {
          "indexed": false,
          "internalType": "uint256",
          "name": "proposalId",
          "type": "uint256"
        }
      ],
      "name": "ProposalCanceled",
      "type": "event"
    },
    {
      "anonymous": false,
      "inputs": [
        {
          "indexed": false,
          "internalType": "uint256",
          "name": "proposalId",
          "type": "uint256"
        },
        {
          "indexed": false,
          "internalType": "address",
          "name": "proposer",
          "type": "address"
        },
        {
          "indexed": false,
          "internalType": "address[]",
          "name": "targets",
          "type": "address[]"
        },
        {
          "indexed": false,
          "internalType": "uint256[]",
          "name": "values",
          "type": "uint256[]"
        },
        {
          "indexed": false,
          "internalType": "string[]",
          "name": "signatures",
          "type": "string[]"
        },
        {
          "indexed": false,
          "internalType": "bytes[]",
          "name": "calldatas",
          "type": "bytes[]"
        },
        {
          "indexed": false,
          "internalType": "uint256",
          "name": "voteStart",
          "type": "uint256"
        },
        {
          "indexed": false,
          "internalType": "uint256",
          "name": "voteEnd",
          "type": "uint256"
        },
        {
          "indexed": false,
          "internalType": "string",
          "name": "description",
          "type": "string"
        }
      ],
      "name": "ProposalCreated",
      "type": "event"
    },
    {
      "anonymous": false,
      "inputs": [
        {
          "indexed": false,
          "internalType": "uint256",
          "name": "proposalId",
          "type": "uint256"
        }
      ],
      "name": "ProposalExecuted",
      "type": "event"
    },
    {
      "anonymous": false,
      "inputs": [
        {
          "indexed": false,
          "internalType": "uint256",
          "name": "proposalId",
          "type": "uint256"
        },
        {
          "indexed": false,
          "internalType": "uint256",
          "name": "etaSeconds",
          "type": "uint256"
        }
      ],
      "name": "ProposalQueued",
      "type": "event"
    },
    {
      "anonymous": false,
      "inputs": [
        {
          "indexed": false,
          "internalType": "uint256",
          "name": "oldProposalThreshold",
          "type": "uint256"
        },
        {
          "indexed": false,
          "internalType": "uint256",
          "name": "newProposalThreshold",
          "type": "uint256"
        }
      ],
      "name": "ProposalThresholdSet",
      "type": "event"
    },
    {
      "anonymous": false,
      "inputs": [
        {
          "indexed": false,
          "internalType": "uint256",
          "name": "oldQuorumNumerator",
          "type": "uint256"
        },
        {
          "indexed": false,
          "internalType": "uint256",
          "name": "newQuorumNumerator",
          "type": "uint256"
        }
      ],
      "name": "QuorumNumeratorUpdated",
      "type": "event"
    },
    {
      "anonymous": false,
      "inputs": [
        {
          "indexed": true,
          "internalType": "address",
          "name": "voter",
          "type": "address"
        },
        {
          "indexed": false,
          "internalType": "uint256",
          "name": "proposalId",
          "type": "uint256"
        },
        {
          "indexed": false,
          "internalType": "uint8",
          "name": "support",
          "type": "uint8"
        },
        {
          "indexed": false,
          "internalType": "uint256",
          "name": "weight",
          "type": "uint256"
        },
        {
          "indexed": false,
          "internalType": "string",
          "name": "reason",
          "type": "string"
        }
      ],
      "name": "VoteCast",
      "type": "event"
    },
    {
      "anonymous": false,
      "inputs": [
        {
          "indexed": true,
          "internalType": "address",
          "name": "voter",
          "type": "address"
        },
        {
          "indexed": false,
          "internalType": "uint256",
          "name": "proposalId",
          "type": "uint256"
        },
        {
          "indexed": false,
          "internalType": "uint8",
          "name": "support",
          "type": "uint8"
        },
        {
          "indexed": false,
          "internalType": "uint256",
          "name": "weight",
          "type": "uint256"
        },
        {
          "indexed": false,
          "internalType": "string",
          "name": "reason",
          "type": "string"
        },
        {
          "indexed": false,
          "internalType": "bytes",
          "name": "params",
          "type": "bytes"
        }
      ],
      "name": "VoteCastWithParams",
      "type": "event"
    },
    {
      "anonymous": false,
      "inputs": [
        {
          "indexed": false,
          "internalType": "uint256",
          "name": "oldVotingDelay",
          "type": "uint256"
        },
        {
          "indexed": false,
          "internalType": "uint256",
          "name": "newVotingDelay",
          "type": "uint256"
        }
      ],
      "name": "VotingDelaySet",
      "type": "event"
    },
    {
      "anonymous": false,
      "inputs": [
        {
          "indexed": false,
          "internalType": "uint256",
          "name": "oldVotingPeriod",
          "type": "uint256"
        },
        {
          "indexed": false,
          "internalType": "uint256",
          "name": "newVotingPeriod",
          "type": "uint256"
        }
      ],
      "name": "VotingPeriodSet",
      "type": "event"
    },
    {
      "inputs": [],
      "name": "BALLOT_TYPEHASH",
      "outputs": [
        {
          "internalType": "bytes32",
          "name": "",
          "type": "bytes32"
        }
      ],
      "stateMutability": "view",
      "type": "function"
    },
    {
      "inputs": [],
      "name": "CLOCK_MODE",
      "outputs": [
        {
          "internalType": "string",
          "name": "",
          "type": "string"
        }
      ],
      "stateMutability": "view",
      "type": "function"
    },
    {
      "inputs": [],
      "name": "COUNTING_MODE",
      "outputs": [
        {
          "internalType": "string",
          "name": "",
          "type": "string"
        }
      ],
      "stateMutability": "pure",
      "type": "function"
    },
    {
      "inputs": [],
      "name": "EXTENDED_BALLOT_TYPEHASH",
      "outputs": [
        {
          "internalType": "bytes32",
          "name": "",
          "type": "bytes32"
        }
      ],
      "stateMutability": "view",
      "type": "function"
    },
    {
      "inputs": [
        {
          "internalType": "address[]",
          "name": "targets",
          "type": "address[]"
        },
        {
          "internalType": "uint256[]",
          "name": "values",
          "type": "uint256[]"
        },
        {
          "internalType": "bytes[]",
          "name": "calldatas",
          "type": "bytes[]"
        },
        {
          "internalType": "bytes32",
          "name": "descriptionHash",
          "type": "bytes32"
        }
      ],
      "name": "cancel",
      "outputs": [
        {
          "internalType": "uint256",
          "name": "",
          "type": "uint256"
        }
      ],
      "stateMutability": "nonpayable",
      "type": "function"
    },
    {
      "inputs": [
        {
          "internalType": "uint256",
          "name": "proposalId",
          "type": "uint256"
        },
        {
          "internalType": "uint8",
          "name": "support",
          "type": "uint8"
        }
      ],
      "name": "castVote",
      "outputs": [
        {
          "internalType": "uint256",
          "name": "",
          "type": "uint256"
        }
      ],
      "stateMutability": "nonpayable",
      "type": "function"
    },
    {
      "inputs": [
        {
          "internalType": "uint256",
          "name": "proposalId",
          "type": "uint256"
        },
        {
          "internalType": "uint8",
          "name": "support",
          "type": "uint8"
        },
        {
          "internalType": "address",
          "name": "voter",
          "type": "address"
        },
        {
          "internalType": "bytes",
          "name": "signature",
          "type": "bytes"
        }
      ],
      "name": "castVoteBySig",
      "outputs": [
        {
          "internalType": "uint256",
          "name": "",
          "type": "uint256"
        }
      ],
      "stateMutability": "nonpayable",
      "type": "function"
    },
    {
      "inputs": [
        {
          "internalType": "uint256",
          "name": "proposalId",
          "type": "uint256"
        },
        {
          "internalType": "uint8",
          "name": "support",
          "type": "uint8"
        },
        {
          "internalType": "uint256",
          "name": "votes",
          "type": "uint256"
        }
      ],
      "name": "castVoteQuadratic",
      "outputs": [
        {
          "internalType": "uint256",
          "name": "",
          "type": "uint256"
        }
      ],
      "stateMutability": "nonpayable",
      "type": "function"
    },
    {
      "inputs": [
        {
          "internalType": "uint256",
          "name": "proposalId",
          "type": "uint256"
        },
        {
          "internalType": "uint8",
          "name": "support",
          "type": "uint8"
        },
        {
          "internalType": "string",
          "name": "reason",
          "type": "string"
        }
      ],
      "name": "castVoteWithReason",
      "outputs": [
        {
          "internalType": "uint256",
          "name": "",
          "type": "uint256"
        }
      ],
      "stateMutability": "nonpayable",
      "type": "function"
    },
    {
      "inputs": [
        {
          "internalType": "uint256",
          "name": "proposalId",
          "type": "uint256"
        },
        {
          "internalType": "uint8",
          "name": "support",
          "type": "uint8"
        },
        {
          "internalType": "string",
          "name": "reason",
          "type": "string"
        },
        {
          "internalType": "bytes",
          "name": "params",
          "type": "bytes"
        }
      ],
      "name": "castVoteWithReasonAndParams",
      "outputs": [
        {
          "internalType": "uint256",
          "name": "",
          "type": "uint256"
        }
      ],
      "stateMutability": "nonpayable",
      "type": "function"
    },
    {
      "inputs": [
        {
          "internalType": "uint256",
          "name": "proposalId",
          "type": "uint256"
        },
        {
          "internalType": "uint8",
          "name": "support",
          "type": "uint8"
        },
        {
          "internalType": "address",
          "name": "voter",
          "type": "address"
        },
        {
          "internalType": "string",
          "name": "reason",
          "type": "string"
        },
        {
          "internalType": "bytes",
          "name": "params",
          "type": "bytes"
        },
        {
          "internalType": "bytes",
          "name": "signature",
          "type": "bytes"
        }
      ],
      "name": "castVoteWithReasonAndParamsBySig",
      "outputs": [
        {
          "internalType": "uint256",
          "name": "",
          "type": "uint256"
        }
      ],
      "stateMutability": "nonpayable",
      "type": "function"
    },
    {
      "inputs": [],
      "name": "clock",
      "outputs": [
        {
          "internalType": "uint48",
          "name": "",
          "type": "uint48"
        }
      ],
      "stateMutability": "view",
      "type": "function"
    },
    {
      "inputs": [],
      "name": "eip712Domain",
      "outputs": [
        {
          "internalType": "bytes1",
          "name": "fields",
          "type": "bytes1"
        },
        {
          "internalType": "string",
          "name": "name",
          "type": "string"
        },
        {
          "internalType": "string",
          "name": "version",
          "type": "string"
        },
        {
          "internalType": "uint256",
          "name": "chainId",
          "type": "uint256"
        },
        {
          "internalType": "address",
          "name": "verifyingContract",
          "type": "address"
        },
        {
          "internalType": "bytes32",
          "name": "salt",
          "type": "bytes32"
        },
        {
          "internalType": "uint256[]",
          "name": "extensions",
          "type": "uint256[]"
        }
      ],
      "stateMutability": "view",
      "type": "function"
    },
    {
      "inputs": [
        {
          "internalType": "address[]",
          "name": "targets",
          "type": "address[]"
        },
        {
          "internalType": "uint256[]",
          "name": "values",
          "type": "uint256[]"
        },
        {
          "internalType": "bytes[]",
          "name": "calldatas",
          "type": "bytes[]"
        },
        {
          "internalType": "bytes32",
          "name": "descriptionHash",
          "type": "bytes32"
        }
      ],
      "name": "execute",
      "outputs": [
        {
          "internalType": "uint256",
          "name": "",
          "type": "uint256"
        }
      ],
      "stateMutability": "payable",
      "type": "function"
    },
    {
      "inputs": [
        {
          "internalType": "address[]",
          "name": "targets",
          "type": "address[]"
        },
        {
          "internalType": "uint256[]",
          "name": "values",
          "type": "uint256[]"
        },
        {
          "internalType": "bytes[]",
          "name": "calldatas",
          "type": "bytes[]"
        },
        {
          "internalType": "bytes32",
          "name": "descriptionHash",
          "type": "bytes32"
        }
      ],
      "name": "getProposalId",
      "outputs": [
        {
          "internalType": "uint256",
          "name": "",
          "type": "uint256"
        }
      ],
      "stateMutability": "view",
      "type": "function"
    },
    {
      "inputs": [
        {
          "internalType": "address",
          "name": "account",
          "type": "address"
        },
        {
          "internalType": "uint256",
          "name": "timepoint",
          "type": "uint256"
        }
      ],
      "name": "getVotes",
      "outputs": [
        {
          "internalType": "uint256",
          "name": "",
          "type": "uint256"
        }
      ],
      "stateMutability": "view",
      "type": "function"
    },
    {
      "inputs": [
        {
          "internalType": "address",
          "name": "account",
          "type": "address"
        },
        {
          "internalType": "uint256",
          "name": "timepoint",
          "type": "uint256"
        },
        {
          "internalType": "bytes",
          "name": "params",
          "type": "bytes"
        }
      ],
      "name": "getVotesWithParams",
      "outputs": [
        {
          "internalType": "uint256",
          "name": "",
          "type": "uint256"
        }
      ],
      "stateMutability": "view",
      "type": "function"
    },
    {
      "inputs": [
        {
          "internalType": "uint256",
          "name": "proposalId",
          "type": "uint256"
        },
        {
          "internalType": "address",
          "name": "account",
          "type": "address"
        }
      ],
      "name": "hasVoted",
      "outputs": [
        {
          "internalType": "bool",
          "name": "",
          "type": "bool"
        }
      ],
      "stateMutability": "view",
      "type": "function"
    },
    {
      "inputs": [
        {
          "internalType": "address[]",
          "name": "targets",
          "type": "address[]"
        },
        {
          "internalType": "uint256[]",
          "name": "values",
          "type": "uint256[]"
        },
        {
          "internalType": "bytes[]",
          "name": "calldatas",
          "type": "bytes[]"
        },
        {
          "internalType": "bytes32",
          "name": "descriptionHash",
          "type": "bytes32"
        }
      ],
      "name": "hashProposal",
      "outputs": [
        {
          "internalType": "uint256",
          "name": "",
          "type": "uint256"
        }
      ],
      "stateMutability": "pure",
      "type": "function"
    },
    {
      "inputs": [],
      "name": "name",
      "outputs": [
        {
          "internalType": "string",
          "name": "",
          "type": "string"
        }
      ],
      "stateMutability": "view",
      "type": "function"
    },
    {
      "inputs": [
        {
          "internalType": "address",
          "name": "owner",
          "type": "address"
        }
      ],
      "name": "nonces",
      "outputs": [
        {
          "internalType": "uint256",
          "name": "",
          "type": "uint256"
        }
      ],
      "stateMutability": "view",
      "type": "function"
    },
    {
      "inputs": [
        {
          "internalType": "address",
          "name": "",
          "type": "address"
        },
        {
          "internalType": "address",
          "name": "",
          "type": "address"
        },
        {
          "internalType": "uint256[]",
          "name": "",
          "type": "uint256[]"
        },
        {
          "internalType": "uint256[]",
          "name": "",
          "type": "uint256[]"
        },
        {
          "internalType": "bytes",
          "name": "",
          "type": "bytes"
        }
      ],
      "name": "onERC1155BatchReceived",
      "outputs": [
        {
          "internalType": "bytes4",
          "name": "",
          "type": "bytes4"
        }
      ],
      "stateMutability": "nonpayable",
      "type": "function"
    },
    {
      "inputs": [
        {
          "internalType": "address",
          "name": "",
          "type": "address"
        },
        {
          "internalType": "address",
          "name": "",
          "type": "address"
        },
        {
          "internalType": "uint256",
          "name": "",
          "type": "uint256"
        },
        {
          "internalType": "uint256",
          "name": "",
          "type": "uint256"
        },
        {
          "internalType": "bytes",
          "name": "",
          "type": "bytes"
        }
      ],
      "name": "onERC1155Received",
      "outputs": [
        {
          "internalType": "bytes4",
          "name": "",
          "type": "bytes4"
        }
      ],
      "stateMutability": "nonpayable",
      "type": "function"
    },
    {
      "inputs": [
        {
          "internalType": "address",
          "name": "",
          "type": "address"
        },
        {
          "internalType": "address",
          "name": "",
          "type": "address"
        },
        {
          "internalType": "uint256",
          "name": "",
          "type": "uint256"
        },
        {
          "internalType": "bytes",
          "name": "",
          "type": "bytes"
        }
      ],
      "name": "onERC721Received",
      "outputs": [
        {
          "internalType": "bytes4",
          "name": "",
          "type": "bytes4"
        }
      ],
      "stateMutability": "nonpayable",
      "type": "function"
    },
    {
      "inputs": [
        {
          "internalType": "uint256",
          "name": "proposalId",
          "type": "uint256"
        }
      ],
      "name": "proposalDeadline",
      "outputs": [
        {
          "internalType": "uint256",
          "name": "",
          "type": "uint256"
        }
      ],
      "stateMutability": "view",
      "type": "function"
    },
    {
      "inputs": [
        {
          "internalType": "uint256",
          "name": "proposalId",
          "type": "uint256"
        }
      ],
      "name": "proposalEta",
      "outputs": [
        {
          "internalType": "uint256",
          "name": "",
          "type": "uint256"
        }
      ],
      "stateMutability": "view",
      "type": "function"
    },
    {
      "inputs": [
        {
          "internalType": "uint256",
          "name": "",
          "type": "uint256"
        }
      ],
      "name": "proposalNeedsQueuing",
      "outputs": [
        {
          "internalType": "bool",
          "name": "",
          "type": "bool"
        }
      ],
      "stateMutability": "view",
      "type": "function"
    },
    {
      "inputs": [
        {
          "internalType": "uint256",
          "name": "proposalId",
          "type": "uint256"
        }
      ],
      "name": "proposalProposer",
      "outputs": [
        {
          "internalType": "address",
          "name": "",
          "type": "address"
        }
      ],
      "stateMutability": "view",
      "type": "function"
    },
    {
      "inputs": [
        {
          "internalType": "uint256",
          "name": "proposalId",
          "type": "uint256"
        }
      ],
      "name": "proposalSnapshot",
      "outputs": [
        {
          "internalType": "uint256",
          "name": "",
          "type": "uint256"
        }
      ],
      "stateMutability": "view",
      "type": "function"
    },
    {
      "inputs": [],
      "name": "proposalThreshold",
      "outputs": [
        {
          "internalType": "uint256",
          "name": "",
          "type": "uint256"
        }
      ],
      "stateMutability": "view",
      "type": "function"
    },
    {
      "inputs": [
        {
          "internalType": "uint256",
          "name": "proposalId",
          "type": "uint256"
        }
      ],
      "name": "proposalVotes",
      "outputs": [
        {
          "internalType": "uint256",
          "name": "againstVotes",
          "type": "uint256"
        },
        {
          "internalType": "uint256",
          "name": "forVotes",
          "type": "uint256"
        },
        {
          "internalType": "uint256",
          "name": "abstainVotes",
          "type": "uint256"
        }
      ],
      "stateMutability": "view",
      "type": "function"
    },
    {
      "inputs": [
        {
          "internalType": "uint256",
          "name": "",
          "type": "uint256"
        }
      ],
      "name": "proposalVotingType",
      "outputs": [
        {
          "internalType": "enum MyGovernor.VotingType",
          "name": "",
          "type": "uint8"
        }
      ],
      "stateMutability": "view",
      "type": "function"
    },
    {
      "inputs": [
        {
          "internalType": "address[]",
          "name": "targets",
          "type": "address[]"
        },
        {
          "internalType": "uint256[]",
          "name": "values",
          "type": "uint256[]"
        },
        {
          "internalType": "bytes[]",
          "name": "calldatas",
          "type": "bytes[]"
        },
        {
          "internalType": "string",
          "name": "description",
          "type": "string"
        }
      ],
      "name": "propose",
      "outputs": [
        {
          "internalType": "uint256",
          "name": "",
          "type": "uint256"
        }
      ],
      "stateMutability": "nonpayable",
      "type": "function"
    },
    {
      "inputs": [
        {
          "internalType": "address[]",
          "name": "targets",
          "type": "address[]"
        },
        {
          "internalType": "uint256[]",
          "name": "values",
          "type": "uint256[]"
        },
        {
          "internalType": "bytes[]",
          "name": "calldatas",
          "type": "bytes[]"
        },
        {
          "internalType": "string",
          "name": "description",
          "type": "string"
        },
        {
          "internalType": "enum MyGovernor.VotingType",
          "name": "_votingType",
          "type": "uint8"
        }
      ],
      "name": "propose",
      "outputs": [
        {
          "internalType": "uint256",
          "name": "",
          "type": "uint256"
        }
      ],
      "stateMutability": "nonpayable",
      "type": "function"
    },
    {
      "inputs": [
        {
          "internalType": "address[]",
          "name": "targets",
          "type": "address[]"
        },
        {
          "internalType": "uint256[]",
          "name": "values",
          "type": "uint256[]"
        },
        {
          "internalType": "bytes[]",
          "name": "calldatas",
          "type": "bytes[]"
        },
        {
          "internalType": "bytes32",
          "name": "descriptionHash",
          "type": "bytes32"
        }
      ],
      "name": "queue",
      "outputs": [
        {
          "internalType": "uint256",
          "name": "",
          "type": "uint256"
        }
      ],
      "stateMutability": "nonpayable",
      "type": "function"
    },
    {
      "inputs": [
        {
          "internalType": "uint256",
          "name": "blockNumber",
          "type": "uint256"
        }
      ],
      "name": "quorum",
      "outputs": [
        {
          "internalType": "uint256",
          "name": "",
          "type": "uint256"
        }
      ],
      "stateMutability": "view",
      "type": "function"
    },
    {
      "inputs": [],
      "name": "quorumDenominator",
      "outputs": [
        {
          "internalType": "uint256",
          "name": "",
          "type": "uint256"
        }
      ],
      "stateMutability": "view",
      "type": "function"
    },
    {
      "inputs": [
        {
          "internalType": "uint256",
          "name": "timepoint",
          "type": "uint256"
        }
      ],
      "name": "quorumNumerator",
      "outputs": [
        {
          "internalType": "uint256",
          "name": "",
          "type": "uint256"
        }
      ],
      "stateMutability": "view",
      "type": "function"
    },
    {
      "inputs": [],
      "name": "quorumNumerator",
      "outputs": [
        {
          "internalType": "uint256",
          "name": "",
          "type": "uint256"
        }
      ],
      "stateMutability": "view",
      "type": "function"
    },
    {
      "inputs": [
        {
          "internalType": "address",
          "name": "target",
          "type": "address"
        },
        {
          "internalType": "uint256",
          "name": "value",
          "type": "uint256"
        },
        {
          "internalType": "bytes",
          "name": "data",
          "type": "bytes"
        }
      ],
      "name": "relay",
      "outputs": [],
      "stateMutability": "payable",
      "type": "function"
    },
    {
      "inputs": [
        {
          "internalType": "uint256",
          "name": "newProposalThreshold",
          "type": "uint256"
        }
      ],
      "name": "setProposalThreshold",
      "outputs": [],
      "stateMutability": "nonpayable",
      "type": "function"
    },
    {
      "inputs": [
        {
          "internalType": "uint48",
          "name": "newVotingDelay",
          "type": "uint48"
        }
      ],
      "name": "setVotingDelay",
      "outputs": [],
      "stateMutability": "nonpayable",
      "type": "function"
    },
    {
      "inputs": [
        {
          "internalType": "uint32",
          "name": "newVotingPeriod",
          "type": "uint32"
        }
      ],
      "name": "setVotingPeriod",
      "outputs": [],
      "stateMutability": "nonpayable",
      "type": "function"
    },
    {
      "inputs": [
        {
          "internalType": "uint256",
          "name": "proposalId",
          "type": "uint256"
        }
      ],
      "name": "state",
      "outputs": [
        {
          "internalType": "enum IGovernor.ProposalState",
          "name": "",
          "type": "uint8"
        }
      ],
      "stateMutability": "view",
      "type": "function"
    },
    {
      "inputs": [
        {
          "internalType": "bytes4",
          "name": "interfaceId",
          "type": "bytes4"
        }
      ],
      "name": "supportsInterface",
      "outputs": [
        {
          "internalType": "bool",
          "name": "",
          "type": "bool"
        }
      ],
      "stateMutability": "view",
      "type": "function"
    },
    {
      "inputs": [],
      "name": "token",
      "outputs": [
        {
          "internalType": "contract IERC5805",
          "name": "",
          "type": "address"
        }
      ],
      "stateMutability": "view",
      "type": "function"
    },
    {
      "inputs": [
        {
          "internalType": "uint256",
          "name": "newQuorumNumerator",
          "type": "uint256"
        }
      ],
      "name": "updateQuorumNumerator",
      "outputs": [],
      "stateMutability": "nonpayable",
      "type": "function"
    },
    {
      "inputs": [],
      "name": "version",
      "outputs": [
        {
          "internalType": "string",
          "name": "",
          "type": "string"
        }
      ],
      "stateMutability": "view",
      "type": "function"
    },
    {
      "inputs": [],
      "name": "votingDelay",
      "outputs": [
        {
          "internalType": "uint256",
          "name": "",
          "type": "uint256"
        }
      ],
      "stateMutability": "view",
      "type": "function"
    },
    {
      "inputs": [],
      "name": "votingPeriod",
      "outputs": [
        {
          "internalType": "uint256",
          "name": "",
          "type": "uint256"
        }
      ],
      "stateMutability": "view",
      "type": "function"
    },
    {
      "stateMutability": "payable",
      "type": "receive"
    }
  ],
  "bytecode": "0x61018060405234801562000011575f80fd5b5060405162004b2b38038062004b2b8339810160408190526200003491620006dc565b600481600161c4e05f6040518060400160405280600a81526020016926bca3b7bb32b93737b960b11b81525080620000716200017960201b60201c565b6200007d825f62000194565b610120526200008e81600162000194565b61014052815160208084019190912060e052815190820120610100524660a0526200011b60e05161010051604080517f8b73c3c69bb8fe3d512ecc4cf759cc79239f7b179b0ffacaa9a75d522b39400f60208201529081019290925260608201524660808201523060a08201525f9060c00160405160208183030381529060405280519060200120905090565b60805250503060c0526003620001328282620007a2565b5062000140905083620001cc565b6200014b8262000232565b6200015681620002d7565b5050506001600160a01b031661016052620001718162000318565b505062000927565b6040805180820190915260018152603160f81b602082015290565b5f602083511015620001b357620001ab83620003b7565b9050620001c6565b81620001c08482620007a2565b5060ff90505b92915050565b6008546040805165ffffffffffff928316815291831660208301527fc565b045403dc03c2eea82b81a0465edad9e2e7fc4d97e11421c209da93d7a93910160405180910390a16008805465ffffffffffff191665ffffffffffff92909216919091179055565b8063ffffffff165f03620002605760405163f1cfbf0560e01b81525f60048201526024015b60405180910390fd5b6008546040805163ffffffff66010000000000009093048316815291831660208301527f7e3f7f0708a84de9203036abaa450dccc85ad5ff52f78c170f3edb55cf5e8828910160405180910390a16008805463ffffffff90921666010000000000000263ffffffff60301b19909216919091179055565b60075460408051918252602082018390527fccb45da8d5717e6c4544694297c4ba5cf151d455c9bb0ed4fc7a38411bc05461910160405180910390a1600755565b606480821115620003475760405163243e544560e01b8152600481018390526024810182905260440162000257565b5f62000352620003f9565b9050620003776200036262000414565b6200036d8562000495565b600a9190620004ce565b505060408051828152602081018590527f0553476bf02ef2726e8ce5ced78d63e26e602e4a2257b1f559418e24b4633997910160405180910390a1505050565b5f80829050601f81511115620003e4578260405163305a27a960e01b81526004016200025791906200086e565b8051620003f182620008bc565b179392505050565b5f62000406600a620004ea565b6001600160d01b0316905090565b5f620004206101605190565b6001600160a01b03166391ddadf46040518163ffffffff1660e01b8152600401602060405180830381865afa9250505080156200047c575060408051601f3d908101601f191682019092526200047991810190620008e0565b60015b62000490576200048b62000537565b905090565b919050565b5f6001600160d01b03821115620004ca576040516306dfcc6560e41b815260d060048201526024810183905260440162000257565b5090565b5f80620004dd85858562000543565b915091505b935093915050565b80545f9080156200052e5762000514836200050760018462000907565b5f91825260209091200190565b54660100000000000090046001600160d01b031662000530565b5f5b9392505050565b5f6200048b43620006a8565b82545f90819080156200064a575f62000563876200050760018562000907565b805490915065ffffffffffff80821691660100000000000090046001600160d01b0316908816821115620005aa57604051632520601d60e01b815260040160405180910390fd5b8765ffffffffffff168265ffffffffffff1603620005e857825465ffffffffffff1666010000000000006001600160d01b038916021783556200063b565b6040805180820190915265ffffffffffff808a1682526001600160d01b03808a1660208085019182528d54600181018f555f8f815291909120945191519092166601000000000000029216919091179101555b9450859350620004e292505050565b50506040805180820190915265ffffffffffff80851682526001600160d01b0380851660208085019182528854600181018a555f8a8152918220955192519093166601000000000000029190931617920191909155905081620004e2565b5f65ffffffffffff821115620004ca576040516306dfcc6560e41b8152603060048201526024810183905260440162000257565b5f60208284031215620006ed575f80fd5b81516001600160a01b038116811462000530575f80fd5b634e487b7160e01b5f52604160045260245ffd5b600181811c908216806200072d57607f821691505b6020821081036200074c57634e487b7160e01b5f52602260045260245ffd5b50919050565b601f8211156200079d57805f5260205f20601f840160051c81016020851015620007795750805b601f840160051c820191505b818110156200079a575f815560010162000785565b50505b505050565b81516001600160401b03811115620007be57620007be62000704565b620007d681620007cf845462000718565b8462000752565b602080601f8311600181146200080c575f8415620007f45750858301515b5f19600386901b1c1916600185901b17855562000866565b5f85815260208120601f198616915b828110156200083c578886015182559484019460019091019084016200081b565b50858210156200085a57878501515f19600388901b60f8161c191681555b505060018460011b0185555b505050505050565b5f602080835283518060208501525f5b818110156200089c578581018301518582016040015282016200087e565b505f604082860101526040601f19601f8301168501019250505092915050565b805160208083015191908110156200074c575f1960209190910360031b1b16919050565b5f60208284031215620008f1575f80fd5b815165ffffffffffff8116811462000530575f80fd5b81810381811115620001c657634e487b7160e01b5f52601160045260245ffd5b60805160a05160c05160e05161010051610120516101405161016051614185620009a65f395f8181610a0d01528181610d52015281816110140152818161127a01528181611ffd01526121ee01525f611f4101525f611f1501525f612b9101525f612b6901525f612ac401525f612aee01525f612b1801526141855ff3fe6080604052600436106102c2575f3560e01c80637d5e81e21161016f578063b58131b0116100d8578063deaaa7cc11610092578063ece40cc11161006d578063ece40cc114610996578063f23a6e61146109b5578063f8ce560a146109e0578063fc0c546a146109ff575f80fd5b8063deaaa7cc14610925578063e540d01d14610958578063eb9019d414610977575f80fd5b8063b58131b014610850578063bc197c8114610864578063c01f9e371461088f578063c28bc2fa146108ae578063c59057e4146108c1578063dd4e2ba5146108e0575f80fd5b80639a79018e116101295780639a79018e1461078a5780639a802a6d146107a9578063a7713a70146107c8578063a8f8a668146107dc578063a9a95294146107fb578063ab58fb8e1461081a575f80fd5b80637d5e81e2146106b35780637ecebe00146106d257806384b0196e146107065780638ff262e31461072d57806391ddadf41461074c57806397c3d33414610777575f80fd5b80633e4f49e61161022b57806356781388116101e557806360c4247f116101c057806360c4247f14610637578063659cf9981461065657806379051887146106755780637b3c71d314610694575f80fd5b806356781388146105da5780635b8d0e0d146105f95780635f398a1414610618575f80fd5b80633e4f49e6146104d057806343859632146104fc578063452115d6146105445780634bf5d7e914610563578063544ffc9c1461057757806354fd4d50146105b1575f80fd5b8063160cbed71161027c578063160cbed7146103fd5780632656227d1461041c5780632d63f6931461042f5780632fe3e2611461044e5780633932abb1146104815780633a4b663414610495575f80fd5b806301ffc9a7146102cf57806302a251a31461030357806306f3f9e61461032e57806306fdde031461034d578063143489d01461036e578063150b7a02146103ba575f80fd5b366102cb57005b005b5f80fd5b3480156102da575f80fd5b506102ee6102e9366004613152565b610a31565b60405190151581526020015b60405180910390f35b34801561030e575f80fd5b50600854600160301b900463ffffffff165b6040519081526020016102fa565b348015610339575f80fd5b506102c9610348366004613179565b610aa2565b348015610358575f80fd5b50610361610ab6565b6040516102fa91906131dd565b348015610379575f80fd5b506103a2610388366004613179565b5f908152600460205260409020546001600160a01b031690565b6040516001600160a01b0390911681526020016102fa565b3480156103c5575f80fd5b506103e46103d43660046132c1565b630a85bd0160e11b949350505050565b6040516001600160e01b031990911681526020016102fa565b348015610408575f80fd5b5061032061041736600461348a565b610b46565b61032061042a36600461348a565b610b84565b34801561043a575f80fd5b50610320610449366004613179565b610cac565b348015610459575f80fd5b506103207f3e83946653575f9a39005e1545185629e92736b7528ab20ca3816f315424a81181565b34801561048c575f80fd5b50610320610ccc565b3480156104a0575f80fd5b506104c36104af366004613179565b600b6020525f908152604090205460ff1681565b6040516102fa9190613527565b3480156104db575f80fd5b506104ef6104ea366004613179565b610cde565b6040516102fa9190613555565b348015610507575f80fd5b506102ee610516366004613563565b5f8281526009602090815260408083206001600160a01b038516845260030190915290205460ff1692915050565b34801561054f575f80fd5b5061032061055e36600461348a565b610ce8565b34801561056e575f80fd5b50610361610d4e565b348015610582575f80fd5b50610596610591366004613179565b610e0e565b604080519384526020840192909252908201526060016102fa565b3480156105bc575f80fd5b506040805180820190915260018152603160f81b6020820152610361565b3480156105e5575f80fd5b506103206105f436600461359d565b610e33565b348015610604575f80fd5b50610320610613366004613602565b610e5a565b348015610623575f80fd5b506103206106323660046136b2565b610f17565b348015610642575f80fd5b50610320610651366004613179565b610f5f565b348015610661575f80fd5b5061032061067036600461372f565b610f6b565b348015610680575f80fd5b506102c961068f366004613774565b6110c6565b34801561069f575f80fd5b506103206106ae36600461378f565b6110d7565b3480156106be575f80fd5b506103206106cd3660046137e4565b611127565b3480156106dd575f80fd5b506103206106ec36600461387d565b6001600160a01b03165f9081526002602052604090205490565b348015610711575f80fd5b5061071a6111dd565b6040516102fa97969594939291906138d0565b348015610738575f80fd5b5061032061074736600461393f565b61121f565b348015610757575f80fd5b50610760611277565b60405165ffffffffffff90911681526020016102fa565b348015610782575f80fd5b506064610320565b348015610795575f80fd5b506103206107a436600461398a565b6112fe565b3480156107b4575f80fd5b506103206107c3366004613a46565b611346565b3480156107d3575f80fd5b50610320611352565b3480156107e7575f80fd5b506103206107f636600461348a565b61136b565b348015610806575f80fd5b506102ee610815366004613179565b505f90565b348015610825575f80fd5b50610320610834366004613179565b5f9081526004602052604090206001015465ffffffffffff1690565b34801561085b575f80fd5b50610320611378565b34801561086f575f80fd5b506103e461087e366004613a98565b63bc197c8160e01b95945050505050565b34801561089a575f80fd5b506103206108a9366004613179565b611382565b6102c96108bc366004613b20565b6113c4565b3480156108cc575f80fd5b506103206108db36600461348a565b611440565b3480156108eb575f80fd5b506040805180820190915260208082527f737570706f72743d627261766f2671756f72756d3d666f722c6162737461696e90820152610361565b348015610930575f80fd5b506103207ff2aad550cf55f045cb27e9c559f9889fdfb6e6cdaa032301d6ea397784ae51d781565b348015610963575f80fd5b506102c9610972366004613b5d565b611479565b348015610982575f80fd5b50610320610991366004613b80565b61148a565b3480156109a1575f80fd5b506102c96109b0366004613179565b6114a9565b3480156109c0575f80fd5b506103e46109cf366004613ba8565b63f23a6e6160e01b95945050505050565b3480156109eb575f80fd5b506103206109fa366004613179565b6114ba565b348015610a0a575f80fd5b507f00000000000000000000000000000000000000000000000000000000000000006103a2565b5f6001600160e01b031982166366defe7760e11b1480610a6157506001600160e01b031982166332a2ad4360e11b145b80610a7c57506001600160e01b03198216630271189760e51b145b80610a9757506301ffc9a760e01b6001600160e01b03198316145b92915050565b905090565b610aaa6114c4565b610ab3816114fb565b50565b606060038054610ac590613c07565b80601f0160208091040260200160405190810160405280929190818152602001828054610af190613c07565b8015610b3c5780601f10610b1357610100808354040283529160200191610b3c565b820191905f5260205f20905b815481529060010190602001808311610b1f57829003601f168201915b5050505050905090565b5f80610b548686868661136b565b9050610b6981610b646004611590565b6115b2565b505f604051634844252360e11b815260040160405180910390fd5b5f80610b928686868661136b565b9050610bb281610ba26005611590565b610bac6004611590565b176115b2565b505f818152600460205260409020805460ff60f01b1916600160f01b17905530610bd93090565b6001600160a01b031614610c62575f5b8651811015610c6057306001600160a01b0316878281518110610c0e57610c0e613c3f565b60200260200101516001600160a01b031603610c5857610c58858281518110610c3957610c39613c3f565b60200260200101518051906020012060056115ef90919063ffffffff16565b600101610be9565b505b610c6f8187878787611650565b6040518181527f712ae1383f79ac853f8d882153778e0260ef8f03b504e2866e0593e04d2b291f906020015b60405180910390a195945050505050565b5f90815260046020526040902054600160a01b900465ffffffffffff1690565b5f610a9d60085465ffffffffffff1690565b5f610a9782611725565b5f80610cf68686868661136b565b905033610d038282611856565b610d3757604051638fe5d8a960e01b8152600481018390526001600160a01b03821660248201526044015b60405180910390fd5b610d438787878761189b565b979650505050505050565b60607f00000000000000000000000000000000000000000000000000000000000000006001600160a01b0316634bf5d7e96040518163ffffffff1660e01b81526004015f60405180830381865afa925050508015610dcd57506040513d5f823e601f3d908101601f19168201604052610dca9190810190613c53565b60015b610e09575060408051808201909152601d81527f6d6f64653d626c6f636b6e756d6265722666726f6d3d64656661756c74000000602082015290565b919050565b5f818152600960205260409020805460018201546002909201549091905b9193909250565b5f80339050610e5284828560405180602001604052805f81525061194a565b949350505050565b5f610ea088888888888080601f0160208091040260200160405190810160405280939291908181526020018383808284375f920191909152508a925089915061196b9050565b610ec8576040516394ab6c0760e01b81526001600160a01b0387166004820152602401610d2e565b610f0b88878988888080601f0160208091040260200160405190810160405280939291908181526020018383808284375f920191909152508a9250611a38915050565b98975050505050505050565b5f80339050610d4387828888888080601f0160208091040260200160405190810160405280939291908181526020018383808284375f920191909152508a9250611a38915050565b5f610a97600a83611ac7565b5f60015f858152600b602052604090205460ff166001811115610f9057610f90613513565b14610fdd5760405162461bcd60e51b815260206004820152601860248201527f4e6f742061207175616472617469632070726f706f73616c00000000000000006044820152606401610d2e565b5f610fe88380613ccf565b610ffa90670de0b6b3a7640000613ccf565b90505f61100f84670de0b6b3a7640000613ccf565b90505f7f00000000000000000000000000000000000000000000000000000000000000006040516323b872dd60e01b815233600482015261dead6024820152604481018590529091506001600160a01b038216906323b872dd906064016020604051808303815f875af1158015611088573d5f803e3d5ffd5b505050506040513d601f19601f820116820180604052508101906110ac9190613ce6565b506110b987338885611b14565b93505050505b9392505050565b6110ce6114c4565b610ab381611c0a565b5f8033905061111d86828787878080601f0160208091040260200160405190810160405280939291908181526020018383808284375f9201919091525061194a92505050565b9695505050505050565b5f336111338184611c70565b61115b5760405163d9b3955760e01b81526001600160a01b0382166004820152602401610d2e565b5f611164611378565b905080156111d0575f61119283600161117b611277565b6111859190613d05565b65ffffffffffff1661148a565b9050818110156111ce57604051636121770b60e11b81526001600160a01b03841660048201526024810182905260448101839052606401610d2e565b505b610d438787878786611cf4565b5f6060805f805f60606111ee611f0e565b6111f6611f3a565b604080515f80825260208201909252600f60f81b9b939a50919850469750309650945092509050565b5f61122c85858585611f67565b611254576040516394ab6c0760e01b81526001600160a01b0384166004820152602401610d2e565b61126e85848660405180602001604052805f81525061194a565b95945050505050565b5f7f00000000000000000000000000000000000000000000000000000000000000006001600160a01b03166391ddadf46040518163ffffffff1660e01b8152600401602060405180830381865afa9250505080156112f2575060408051601f3d908101601f191682019092526112ef91810190613d2b565b60015b610e0957610a9d611ff0565b5f8061130c87878787611127565b5f818152600b602052604090208054919250849160ff19166001838181111561133757611337613513565b02179055509695505050505050565b5f610e52848484611ffa565b5f61135d600a61208d565b6001600160d01b0316905090565b5f61126e85858585611440565b5f610a9d60075490565b5f818152600460205260408120546113b690600160d01b810463ffffffff1690600160a01b900465ffffffffffff16613d46565b65ffffffffffff1692915050565b6113cc6114c4565b5f80856001600160a01b03168585856040516113e9929190613d65565b5f6040518083038185875af1925050503d805f8114611423576040519150601f19603f3d011682016040523d82523d5f602084013e611428565b606091505b509150915061143782826120d1565b50505050505050565b5f848484846040516020016114589493929190613e04565b60408051601f19818403018152919052805160209091012095945050505050565b6114816114c4565b610ab3816120ed565b5f6110bf83836114a460408051602081019091525f815290565b611ffa565b6114b16114c4565b610ab381612189565b5f610a97826121ca565b3033146114e6576040516347096e4760e01b8152336004820152602401610d2e565b565b806114f36005612267565b036114e85750565b6064808211156115285760405163243e544560e01b81526004810183905260248101829052604401610d2e565b5f611531611352565b905061155061153e611277565b611547856122d4565b600a919061230b565b505060408051828152602081018590527f0553476bf02ef2726e8ce5ced78d63e26e602e4a2257b1f559418e24b4633997910160405180910390a1505050565b5f8160078111156115a3576115a3613513565b600160ff919091161b92915050565b5f806115bd84610cde565b90505f836115ca83611590565b16036110bf578381846040516331b75e4d60e01b8152600401610d2e93929190613e4e565b81546001600160801b03600160801b82048116918116600183019091160361161b5761161b6041612325565b6001600160801b038082165f90815260018086016020526040909120939093558354919092018216600160801b029116179055565b5f5b845181101561171d575f8086838151811061166f5761166f613c3f565b60200260200101516001600160a01b031686848151811061169257611692613c3f565b60200260200101518685815181106116ac576116ac613c3f565b60200260200101516040516116c19190613e70565b5f6040518083038185875af1925050503d805f81146116fb576040519150601f19603f3d011682016040523d82523d5f602084013e611700565b606091505b509150915061170f82826120d1565b505050806001019050611652565b505050505050565b5f818152600460205260408120805460ff600160f01b8204811691600160f81b900416811561175957506007949350505050565b801561176a57506002949350505050565b5f61177486610cac565b9050805f0361179957604051636ad0607560e01b815260048101879052602401610d2e565b5f6117a2611277565b65ffffffffffff1690508082106117bf57505f9695505050505050565b5f6117c988611382565b90508181106117e057506001979650505050505050565b6117e988612336565b158061180857505f888152600960205260409020805460019091015411155b1561181b57506003979650505050505050565b5f8881526004602052604090206001015465ffffffffffff165f0361184857506004979650505050505050565b506005979650505050505050565b5f8061186184610cde565b600781111561187257611872613513565b1480156110bf5750505f91825260046020526040909120546001600160a01b0391821691161490565b5f806118a98686868661136b565b90506118f7816118b96007611590565b6118c36006611590565b6118cd6002611590565b60016118da600782613e8b565b6118e5906002613f84565b6118ef9190613f92565b1818186115b2565b505f818152600460205260409081902080546001600160f81b0316600160f81b179055517f789cf55be980739dad1d0699b93b58e806b51c9d96619bfa8fe0a28abaa7b30c90610c9b9083815260200190565b5f61126e8585858561196660408051602081019091525f815290565b611a38565b5f610d4385611a327f3e83946653575f9a39005e1545185629e92736b7528ab20ca3816f315424a8118a8a8a6119bd8c6001600160a01b03165f90815260026020526040902080546001810190915590565b8b516020808e01919091208c518d830120604051611a1798979695949301968752602087019590955260ff9390931660408601526001600160a01b03919091166060850152608084015260a083015260c082015260e00190565b6040516020818303038152906040528051906020012061236c565b84612398565b5f60015f878152600b602052604090205460ff166001811115611a5d57611a5d613513565b03611aba5760405162461bcd60e51b815260206004820152602760248201527f5573652063617374566f746551756164726174696320666f72207468697320706044820152661c9bdc1bdcd85b60ca1b6064820152608401610d2e565b61111d8686868686612408565b5f805f611ad3856124e6565b9250925050838265ffffffffffff161115611b0057611afb611af48561253e565b8690612570565b611b02565b805b6001600160d01b031695945050505050565b5f6001611b2086610cde565b6007811115611b3157611b31613513565b14611b8a5760405162461bcd60e51b815260206004820152602360248201527f476f7665726e6f723a20766f7465206e6f742063757272656e746c792061637460448201526269766560e81b6064820152608401610d2e565b611ba58585858560405180602001604052805f815250612612565b506040805186815260ff851660208201529081018390526080606082018190525f908201526001600160a01b038516907fb8e138887d0aa13bab447e82de9d5c1777041ecd21ca36ba824ff1e6c07ddda49060a00160405180910390a2509392505050565b6008546040805165ffffffffffff928316815291831660208301527fc565b045403dc03c2eea82b81a0465edad9e2e7fc4d97e11421c209da93d7a93910160405180910390a16008805465ffffffffffff191665ffffffffffff92909216919091179055565b80515f906034811015611c87576001915050610a97565b60131981840101516001600160b01b03198116692370726f706f7365723d60b01b14611cb857600192505050610a97565b5f80611cc886602a86038661270e565b91509150811580610d435750866001600160a01b0316816001600160a01b031614979650505050505050565b5f611d08868686868051906020012061136b565b905084518651141580611d1d57508351865114155b80611d2757508551155b15611d5c57855184518651604051630447b05d60e41b8152600481019390935260248301919091526044820152606401610d2e565b5f81815260046020526040902054600160a01b900465ffffffffffff1615611da55780611d8882610cde565b6040516331b75e4d60e01b8152610d2e9291905f90600401613e4e565b5f611dae610ccc565b611db6611277565b65ffffffffffff16611dc89190613fa5565b90505f611de260085463ffffffff600160301b9091041690565b5f84815260046020526040902080546001600160a01b0319166001600160a01b038716178155909150611e148361253e565b815465ffffffffffff91909116600160a01b0265ffffffffffff60a01b19909116178155611e41826127b7565b815463ffffffff91909116600160d01b0263ffffffff60d01b1990911617815588517f7d84a6263ae0d98d3329bd7b46bb4e8d6f98cd35a7adb45c274c8b7fd5ebd5e090859087908c908c906001600160401b03811115611ea457611ea4613205565b604051908082528060200260200182016040528015611ed757816020015b6060815260200190600190039081611ec25790505b508c89611ee48a82613fa5565b8e604051611efa99989796959493929190613fb8565b60405180910390a150505095945050505050565b6060610a9d7f00000000000000000000000000000000000000000000000000000000000000005f6127e7565b6060610a9d7f000000000000000000000000000000000000000000000000000000000000000060016127e7565b5f61126e83611a327ff2aad550cf55f045cb27e9c559f9889fdfb6e6cdaa032301d6ea397784ae51d7888888611fb98a6001600160a01b03165f90815260026020526040902080546001810190915590565b60408051602081019690965285019390935260ff90911660608401526001600160a01b0316608083015260a082015260c001611a17565b5f610a9d4361253e565b5f7f0000000000000000000000000000000000000000000000000000000000000000604051630748d63560e31b81526001600160a01b038681166004830152602482018690529190911690633a46b1a890604401602060405180830381865afa158015612069573d5f803e3d5ffd5b505050506040513d601f19601f82011682018060405250810190610e52919061408d565b80545f9080156120c9576120b3836120a6600184613f92565b5f91825260209091200190565b54600160301b90046001600160d01b03166110bf565b5f9392505050565b6060826120e6576120e182612890565b610a97565b5080610a97565b8063ffffffff165f036121155760405163f1cfbf0560e01b81525f6004820152602401610d2e565b6008546040805163ffffffff600160301b9093048316815291831660208301527f7e3f7f0708a84de9203036abaa450dccc85ad5ff52f78c170f3edb55cf5e8828910160405180910390a16008805463ffffffff909216600160301b0269ffffffff00000000000019909216919091179055565b60075460408051918252602082018390527fccb45da8d5717e6c4544694297c4ba5cf151d455c9bb0ed4fc7a38411bc05461910160405180910390a1600755565b604051632394e7a360e21b8152600481018290525f90610a97906001600160a01b037f00000000000000000000000000000000000000000000000000000000000000001690638e539e8c90602401602060405180830381865afa158015612233573d5f803e3d5ffd5b505050506040513d601f19601f82011682018060405250810190612257919061408d565b61226084610f5f565b60646128b8565b80545f906001600160801b0380821691600160801b900416810361228f5761228f6031612325565b6001600160801b038181165f908152600185810160205260408220805492905585546fffffffffffffffffffffffffffffffff19169301909116919091179092555090565b5f6001600160d01b03821115612307576040516306dfcc6560e41b815260d0600482015260248101839052604401610d2e565b5090565b5f80612318858585612968565b915091505b935093915050565b634e487b715f52806020526024601cfd5b5f818152600960205260408120600281015460018201546123579190613fa5565b6123636109fa85610cac565b11159392505050565b5f610a97612378612ab8565b8360405161190160f01b8152600281019290925260228201526042902090565b5f836001600160a01b03163b5f036123f6575f806123b68585612be1565b5090925090505f8160038111156123cf576123cf613513565b1480156123ed5750856001600160a01b0316826001600160a01b0316145b925050506110bf565b612401848484612c2a565b90506110bf565b5f61241786610b646001611590565b505f61242c8661242689610cac565b85611ffa565b90505f61243c8888888588612612565b905083515f0361249257866001600160a01b03167fb8e138887d0aa13bab447e82de9d5c1777041ecd21ca36ba824ff1e6c07ddda48988848960405161248594939291906140a4565b60405180910390a2610d43565b866001600160a01b03167fe2babfbac5889a709b63bb7f598b324e08bc5a4fb9ec647fb3cbc9ec07eb871289888489896040516124d39594939291906140cb565b60405180910390a2979650505050505050565b80545f9081908190808203612504575f805f93509350935050610e2c565b5f612514866120a6600185613f92565b546001955065ffffffffffff81169450600160301b90046001600160d01b03169250610e2c915050565b5f65ffffffffffff821115612307576040516306dfcc6560e41b81526030600482015260248101839052604401610d2e565b81545f90818160058111156125cc575f61258984612d00565b6125939085613f92565b5f8881526020902090915081015465ffffffffffff90811690871610156125bc578091506125ca565b6125c7816001613fa5565b92505b505b5f6125d987878585612e58565b90508015612606576125f0876120a6600184613f92565b54600160301b90046001600160d01b0316610d43565b505f9695505050505050565b5f8581526009602090815260408083206001600160a01b03881684526003810190925282205460ff1615612664576040516371c6af4960e01b81526001600160a01b0387166004820152602401610d2e565b6001600160a01b0386165f9081526003820160205260409020805460ff1916600117905560ff85166126ad5783815f015f8282546126a29190613fa5565b909155506127039050565b5f1960ff8616016126cb5783816001015f8282546126a29190613fa5565b60011960ff8616016126ea5783816002015f8282546126a29190613fa5565b6040516303599be160e11b815260040160405180910390fd5b509195945050505050565b5f80845183118061271e57508284115b1561272d57505f90508061231d565b5f612739856001613fa5565b84118015612761575061060f60f31b6127558787016020015190565b6001600160f01b031916145b90505f6127718215156002613ccf565b61277c906028613fa5565b9050806127898787613f92565b036127aa575f8061279b898989612eb7565b909650945061231d9350505050565b5f8093509350505061231d565b5f63ffffffff821115612307576040516306dfcc6560e41b81526020600482015260248101839052604401610d2e565b606060ff8314612801576127fa83612f78565b9050610a97565b81805461280d90613c07565b80601f016020809104026020016040519081016040528092919081815260200182805461283990613c07565b80156128845780601f1061285b57610100808354040283529160200191612884565b820191905f5260205f20905b81548152906001019060200180831161286757829003601f168201915b50505050509050610a97565b80511561289f57805160208201fd5b60405163d6bda27560e01b815260040160405180910390fd5b5f805f6128c58686612fb5565b91509150815f036128e9578381816128df576128df614104565b04925050506110bf565b818411612900576129006003851502601118612325565b5f848688095f868103871696879004966002600389028118808a02820302808a02820302808a02820302808a02820302808a02820302808a02909103029181900381900460010185841190960395909502919093039390930492909217029150509392505050565b82545f9081908015612a5e575f612984876120a6600185613f92565b805490915065ffffffffffff80821691600160301b90046001600160d01b03169088168211156129c757604051632520601d60e01b815260040160405180910390fd5b8765ffffffffffff168265ffffffffffff1603612a0057825465ffffffffffff16600160301b6001600160d01b03891602178355612a50565b6040805180820190915265ffffffffffff808a1682526001600160d01b03808a1660208085019182528d54600181018f555f8f81529190912094519151909216600160301b029216919091179101555b945085935061231d92505050565b50506040805180820190915265ffffffffffff80851682526001600160d01b0380851660208085019182528854600181018a555f8a815291822095519251909316600160301b02919093161792019190915590508161231d565b5f306001600160a01b037f000000000000000000000000000000000000000000000000000000000000000016148015612b1057507f000000000000000000000000000000000000000000000000000000000000000046145b15612b3a57507f000000000000000000000000000000000000000000000000000000000000000090565b610a9d604080517f8b73c3c69bb8fe3d512ecc4cf759cc79239f7b179b0ffacaa9a75d522b39400f60208201527f0000000000000000000000000000000000000000000000000000000000000000918101919091527f000000000000000000000000000000000000000000000000000000000000000060608201524660808201523060a08201525f9060c00160405160208183030381529060405280519060200120905090565b5f805f8351604103612c18576020840151604085015160608601515f1a612c0a88828585612fd1565b955095509550505050612c23565b505081515f91506002905b9250925092565b5f805f856001600160a01b03168585604051602401612c4a929190614118565b60408051601f198184030181529181526020820180516001600160e01b0316630b135d3f60e11b17905251612c7f9190613e70565b5f60405180830381855afa9150503d805f8114612cb7576040519150601f19603f3d011682016040523d82523d5f602084013e612cbc565b606091505b5091509150818015612cd057506020815110155b801561111d57508051630b135d3f60e11b90612cf5908301602090810190840161408d565b149695505050505050565b5f60018211612d0d575090565b816001600160801b8210612d265760809190911c9060401b5b680100000000000000008210612d415760409190911c9060201b5b6401000000008210612d585760209190911c9060101b5b620100008210612d6d5760109190911c9060081b5b6101008210612d815760089190911c9060041b5b60108210612d945760049190911c9060021b5b60048210612da05760011b5b600302600190811c90818581612db857612db8614104565b048201901c90506001818581612dd057612dd0614104565b048201901c90506001818581612de857612de8614104565b048201901c90506001818581612e0057612e00614104565b048201901c90506001818581612e1857612e18614104565b048201901c90506001818581612e3057612e30614104565b048201901c9050612e4f818581612e4957612e49614104565b04821190565b90039392505050565b5f5b81831015612eaf575f612e6d8484613099565b5f8781526020902090915065ffffffffffff86169082015465ffffffffffff161115612e9b57809250612ea9565b612ea6816001613fa5565b93505b50612e5a565b509392505050565b5f808481612ec6866001613fa5565b85118015612eee575061060f60f31b612ee28388016020015190565b6001600160f01b031916145b90505f612efe8215156002613ccf565b90505f80612f0c838a613fa5565b90505b87811015612f67575f612f2d612f288784016020015190565b6130b3565b9050600f8160ff161115612f4c575f809750975050505050505061231d565b612f57601084613ccf565b60ff909116019150600101612f0f565b506001999098509650505050505050565b60605f612f848361312b565b6040805160208082528183019092529192505f91906020820181803683375050509182525060208101929092525090565b5f805f1983850993909202808410938190039390930393915050565b5f80807f7fffffffffffffffffffffffffffffff5d576e7357a4501ddfe92f46681b20a084111561300a57505f9150600390508261308f565b604080515f808252602082018084528a905260ff891692820192909252606081018790526080810186905260019060a0016020604051602081039080840390855afa15801561305b573d5f803e3d5ffd5b5050604051601f1901519150506001600160a01b03811661308657505f92506001915082905061308f565b92505f91508190505b9450945094915050565b5f6130a76002848418614130565b6110bf90848416613fa5565b5f60f882901c602f811180156130cc5750603a8160ff16105b156130da57602f1901610a97565b60608160ff161180156130f0575060678160ff16105b156130fe5760561901610a97565b60408160ff16118015613114575060478160ff16105b156131225760361901610a97565b5060ff92915050565b5f60ff8216601f811115610a9757604051632cd44ac360e21b815260040160405180910390fd5b5f60208284031215613162575f80fd5b81356001600160e01b0319811681146110bf575f80fd5b5f60208284031215613189575f80fd5b5035919050565b5f5b838110156131aa578181015183820152602001613192565b50505f910152565b5f81518084526131c9816020860160208601613190565b601f01601f19169290920160200192915050565b602081525f6110bf60208301846131b2565b80356001600160a01b0381168114610e09575f80fd5b634e487b7160e01b5f52604160045260245ffd5b604051601f8201601f191681016001600160401b038111828210171561324157613241613205565b604052919050565b5f6001600160401b0382111561326157613261613205565b50601f01601f191660200190565b5f82601f83011261327e575f80fd5b813561329161328c82613249565b613219565b8181528460208386010111156132a5575f80fd5b816020850160208301375f918101602001919091529392505050565b5f805f80608085870312156132d4575f80fd5b6132dd856131ef565b93506132eb602086016131ef565b92506040850135915060608501356001600160401b0381111561330c575f80fd5b6133188782880161326f565b91505092959194509250565b5f6001600160401b0382111561333c5761333c613205565b5060051b60200190565b5f82601f830112613355575f80fd5b8135602061336561328c83613324565b8083825260208201915060208460051b870101935086841115613386575f80fd5b602086015b848110156133a95761339c816131ef565b835291830191830161338b565b509695505050505050565b5f82601f8301126133c3575f80fd5b813560206133d361328c83613324565b8083825260208201915060208460051b8701019350868411156133f4575f80fd5b602086015b848110156133a957803583529183019183016133f9565b5f82601f83011261341f575f80fd5b8135602061342f61328c83613324565b82815260059290921b8401810191818101908684111561344d575f80fd5b8286015b848110156133a95780356001600160401b0381111561346e575f80fd5b61347c8986838b010161326f565b845250918301918301613451565b5f805f806080858703121561349d575f80fd5b84356001600160401b03808211156134b3575f80fd5b6134bf88838901613346565b955060208701359150808211156134d4575f80fd5b6134e0888389016133b4565b945060408701359150808211156134f5575f80fd5b5061350287828801613410565b949793965093946060013593505050565b634e487b7160e01b5f52602160045260245ffd5b602081016002831061353b5761353b613513565b91905290565b6008811061355157613551613513565b9052565b60208101610a978284613541565b5f8060408385031215613574575f80fd5b82359150613584602084016131ef565b90509250929050565b803560ff81168114610e09575f80fd5b5f80604083850312156135ae575f80fd5b823591506135846020840161358d565b5f8083601f8401126135ce575f80fd5b5081356001600160401b038111156135e4575f80fd5b6020830191508360208285010111156135fb575f80fd5b9250929050565b5f805f805f805f60c0888a031215613618575f80fd5b873596506136286020890161358d565b9550613636604089016131ef565b945060608801356001600160401b0380821115613651575f80fd5b61365d8b838c016135be565b909650945060808a0135915080821115613675575f80fd5b6136818b838c0161326f565b935060a08a0135915080821115613696575f80fd5b506136a38a828b0161326f565b91505092959891949750929550565b5f805f805f608086880312156136c6575f80fd5b853594506136d66020870161358d565b935060408601356001600160401b03808211156136f1575f80fd5b6136fd89838a016135be565b90955093506060880135915080821115613715575f80fd5b506137228882890161326f565b9150509295509295909350565b5f805f60608486031215613741575f80fd5b833592506137516020850161358d565b9150604084013590509250925092565b65ffffffffffff81168114610ab3575f80fd5b5f60208284031215613784575f80fd5b81356110bf81613761565b5f805f80606085870312156137a2575f80fd5b843593506137b26020860161358d565b925060408501356001600160401b038111156137cc575f80fd5b6137d8878288016135be565b95989497509550505050565b5f805f80608085870312156137f7575f80fd5b84356001600160401b038082111561380d575f80fd5b61381988838901613346565b9550602087013591508082111561382e575f80fd5b61383a888389016133b4565b9450604087013591508082111561384f575f80fd5b61385b88838901613410565b93506060870135915080821115613870575f80fd5b506133188782880161326f565b5f6020828403121561388d575f80fd5b6110bf826131ef565b5f815180845260208085019450602084015f5b838110156138c5578151875295820195908201906001016138a9565b509495945050505050565b60ff60f81b8816815260e060208201525f6138ee60e08301896131b2565b828103604084015261390081896131b2565b606084018890526001600160a01b038716608085015260a0840186905283810360c085015290506139318185613896565b9a9950505050505050505050565b5f805f8060808587031215613952575f80fd5b843593506139626020860161358d565b9250613970604086016131ef565b915060608501356001600160401b0381111561330c575f80fd5b5f805f805f60a0868803121561399e575f80fd5b85356001600160401b03808211156139b4575f80fd5b6139c089838a01613346565b965060208801359150808211156139d5575f80fd5b6139e189838a016133b4565b955060408801359150808211156139f6575f80fd5b613a0289838a01613410565b94506060880135915080821115613a17575f80fd5b50613a248882890161326f565b925050608086013560028110613a38575f80fd5b809150509295509295909350565b5f805f60608486031215613a58575f80fd5b613a61846131ef565b92506020840135915060408401356001600160401b03811115613a82575f80fd5b613a8e8682870161326f565b9150509250925092565b5f805f805f60a08688031215613aac575f80fd5b613ab5866131ef565b9450613ac3602087016131ef565b935060408601356001600160401b0380821115613ade575f80fd5b613aea89838a016133b4565b94506060880135915080821115613aff575f80fd5b613b0b89838a016133b4565b93506080880135915080821115613715575f80fd5b5f805f8060608587031215613b33575f80fd5b613b3c856131ef565b93506020850135925060408501356001600160401b038111156137cc575f80fd5b5f60208284031215613b6d575f80fd5b813563ffffffff811681146110bf575f80fd5b5f8060408385031215613b91575f80fd5b613b9a836131ef565b946020939093013593505050565b5f805f805f60a08688031215613bbc575f80fd5b613bc5866131ef565b9450613bd3602087016131ef565b9350604086013592506060860135915060808601356001600160401b03811115613bfb575f80fd5b6137228882890161326f565b600181811c90821680613c1b57607f821691505b602082108103613c3957634e487b7160e01b5f52602260045260245ffd5b50919050565b634e487b7160e01b5f52603260045260245ffd5b5f60208284031215613c63575f80fd5b81516001600160401b03811115613c78575f80fd5b8201601f81018413613c88575f80fd5b8051613c9661328c82613249565b818152856020838501011115613caa575f80fd5b61126e826020830160208601613190565b634e487b7160e01b5f52601160045260245ffd5b8082028115828204841417610a9757610a97613cbb565b5f60208284031215613cf6575f80fd5b815180151581146110bf575f80fd5b65ffffffffffff828116828216039080821115613d2457613d24613cbb565b5092915050565b5f60208284031215613d3b575f80fd5b81516110bf81613761565b65ffffffffffff818116838216019080821115613d2457613d24613cbb565b818382375f9101908152919050565b5f815180845260208085019450602084015f5b838110156138c55781516001600160a01b031687529582019590820190600101613d87565b5f8282518085526020808601955060208260051b840101602086015f5b84811015613df757601f19868403018952613de58383516131b2565b98840198925090830190600101613dc9565b5090979650505050505050565b608081525f613e166080830187613d74565b8281036020840152613e288187613896565b90508281036040840152613e3c8186613dac565b91505082606083015295945050505050565b83815260608101613e626020830185613541565b826040830152949350505050565b5f8251613e81818460208701613190565b9190910192915050565b60ff8181168382160190811115610a9757610a97613cbb565b600181815b80851115613ede57815f1904821115613ec457613ec4613cbb565b80851615613ed157918102915b93841c9390800290613ea9565b509250929050565b5f82613ef457506001610a97565b81613f0057505f610a97565b8160018114613f165760028114613f2057613f3c565b6001915050610a97565b60ff841115613f3157613f31613cbb565b50506001821b610a97565b5060208310610133831016604e8410600b8410161715613f5f575081810a610a97565b613f698383613ea4565b805f1904821115613f7c57613f7c613cbb565b029392505050565b5f6110bf60ff841683613ee6565b81810381811115610a9757610a97613cbb565b80820180821115610a9757610a97613cbb565b5f6101208b8352602060018060a01b038c1681850152816040850152613fe08285018c613d74565b91508382036060850152613ff4828b613896565b915083820360808501528189518084528284019150828160051b850101838c015f5b8381101561404457601f198784030185526140328383516131b2565b94860194925090850190600101614016565b505086810360a0880152614058818c613dac565b9450505050508560c08401528460e084015282810361010084015261407d81856131b2565b9c9b505050505050505050505050565b5f6020828403121561409d575f80fd5b5051919050565b84815260ff84166020820152826040820152608060608201525f61111d60808301846131b2565b85815260ff8516602082015283604082015260a060608201525f6140f260a08301856131b2565b8281036080840152610f0b81856131b2565b634e487b7160e01b5f52601260045260245ffd5b828152604060208201525f610e5260408301846131b2565b5f8261414a57634e487b7160e01b5f52601260045260245ffd5b50049056fea2646970667358221220c01d57542e3bf49e7079d87de8622f6e1bb5123cd6546d08652750048ec2e5ff64736f6c63430008180033",
  "linkReferences": {},
  "deployedLinkReferences": {}
}